:060000000A128A110E280D
:10000800FE00030E83120313A6000A08A7000A12B3
:100018008A1107290A128A11112883120313C201AF
:10002800C301C401C50183010A128A111B280330C8
:10003800831603138500860183120313860101309A
:100048009000013092000530970005309D00C030C7
:100058008B000330831603138C0064308312031360
:10006800B0000030B1004508BD004408BC000310D2
:10007800BC0DBD0D0310BC0DBD0D0310BC0DBD0D99
:100088003C08B2003D08B3000A128A119E200A12E9
:100098008A11831203133108BF003008BE00643090
:1000A800B0000030B1004308BD004208BC00031096
:1000B800BC0DBD0D0310BC0DBD0D0310BC0DBD0D59
:1000C8003C08B2003D08B3000A128A119E200A12A9
:1000D8008A11831203133108C1003008C0000130AF
:1000E800B0000030B1003F08B3003E08B2000A1269
:1000F8008A11D9210A128A11023083120313B0001F
:100108000030B1004108B3004008B2000A128A1159
:10011800D9210A128A11273083120313BD00F43043
:10012800BC00BC0B9528BD0B9528000031280A128D
:100138008A110E2883120313B601B11FA428A5281B
:10014800AC28B009B109B00A0319B10AB601B60A58
:10015800B31FAF28B028B928B209B309B20A0319E6
:10016800B30A0130B4003408B606B701B801300844
:1001780031040319C028C128F828B501B50ACF28C9
:1001880001300310B00DB10DFF3E031DC52801302D
:10019800B4003408B507B11FD228D328C4280130C9
:1001A8000310B70DB80DFF3E031DD42831083302E4
:1001B800031DE02830083202031CE328E428EB285A
:1001C8003008B2023108031CB303B30237140130FC
:1001D8000310B10CB00CFF3E031DEC280130B50232
:1001E800031DF728F828D32836080319FC28FD280A
:1001F8000229B709B809B70A0319B80A3808B100BB
:100208003708B00008000C1D0A290B2937291608E1
:10021800A9001508A8000F08AB000E08AA002B08B3
:10022800F7002A08F6002908F1002808F0006430D1
:10023800F2000030F3000A128A112A220A128A11E7
:100248007108F9007008F8000A128A1170210A1260
:100258008A11770883120313C5007608C4000C10AE
:100268008E018F010C110D1C3A293B2969291C08A4
:10027800AD001B08AC001108A400A5012408AE00BD
:100288002508AF002F08F7002E08F6002D08F1000A
:100298002C08F0006430F2000030F3000A128A11D2
:1002A8002A220A128A117108F9007008F8000A1245
:1002B8008A1170210A128A11770883120313C30066
:1002C8007608C2008C1091010D1027088A00260EAE
:1002D8008300FE0E7E0E090083120313A101F71F8F
:1002E800762977297E29F609F709F60A0319F70A04
:1002F800A101A10AF91F812982298B29F809F90985
:10030800F80A0319F90A0130FA007A08A106A201CD
:10031800A30176087704031992299329CA29A00111
:10032800A00AA12901300310F60DF70DFF3E031DA9
:1003380097290130FA007A08A007F71FA429A529F0
:10034800962901300310A20DA30DFF3E031DA62917
:1003580077087902031DB22976087802031CB529AB
:10036800B629BD297608F8027708031CF903F902B3
:10037800221401300310F70CF60CFF3E031DBE29B2
:100388000130A002031DC929CA29A529210803197A
:10039800CE29CF29D429A209A309A20A0319A30A9D
:1003A8002308F7002208F60008008312031330031D
:1003B8003104031DE029E129E229042A023030062C
:1003C8003104031DE829E929042A042AB601B701E2
:1003D800B801B901292AB601B701EE29B601B7015A
:1003E800292ABA01BB01292AF4290130B6000030B4
:1003F800B700F829F8290130BA000030BB00292AD3
:1004080007303205B40000303305B5003508003A2E
:1004180003190F2A292A3408003A0319EA29013A4C
:100428000319EF29033A0319F229013A0319F529A7
:10043800073A0319F829013A0319F929033A031964
:10044800FE29013A0319FF29292A0800F401F501B8
:10045800701C2F2A302A362A7208F4070318F50A66
:100468007308F50701300310F20DF30DFF3E031D6D
:10047800372A01300310F10CF00CFF3E031D3E2A11
:1004880070087104031D492A4A2A2C2A7508F100AC
:060498007408F0000800EA
:08400000FF3FFF3FFF3FFF3FC0
:02400E007A3FF7
:00000001FF
